{
  "_format": "hh-sol-artifact-1",
  "contractName": "DegenToken",
  "sourceName": "contracts/DegenToken.sol",
  "abi": [
    {
      "inputs": [],
      "stateMutability": "nonpayable",
      "type": "constructor"
    },
    {
      "anonymous": false,
      "inputs": [
        {
          "indexed": true,
          "internalType": "address",
          "name": "owner",
          "type": "address"
        },
        {
          "indexed": true,
          "internalType": "address",
          "name": "spender",
          "type": "address"
        },
        {
          "indexed": false,
          "internalType": "uint256",
          "name": "value",
          "type": "uint256"
        }
      ],
      "name": "Approval",
      "type": "event"
    },
    {
      "anonymous": false,
      "inputs": [
        {
          "indexed": true,
          "internalType": "address",
          "name": "previousOwner",
          "type": "address"
        },
        {
          "indexed": true,
          "internalType": "address",
          "name": "newOwner",
          "type": "address"
        }
      ],
      "name": "OwnershipTransferred",
      "type": "event"
    },
    {
      "anonymous": false,
      "inputs": [
        {
          "indexed": true,
          "internalType": "address",
          "name": "from",
          "type": "address"
        },
        {
          "indexed": true,
          "internalType": "address",
          "name": "to",
          "type": "address"
        },
        {
          "indexed": false,
          "internalType": "uint256",
          "name": "value",
          "type": "uint256"
        }
      ],
      "name": "Transfer",
      "type": "event"
    },
    {
      "inputs": [
        {
          "internalType": "address",
          "name": "owner",
          "type": "address"
        },
        {
          "internalType": "address",
          "name": "spender",
          "type": "address"
        }
      ],
      "name": "allowance",
      "outputs": [
        {
          "internalType": "uint256",
          "name": "",
          "type": "uint256"
        }
      ],
      "stateMutability": "view",
      "type": "function"
    },
    {
      "inputs": [
        {
          "internalType": "address",
          "name": "spender",
          "type": "address"
        },
        {
          "internalType": "uint256",
          "name": "amount",
          "type": "uint256"
        }
      ],
      "name": "approve",
      "outputs": [
        {
          "internalType": "bool",
          "name": "",
          "type": "bool"
        }
      ],
      "stateMutability": "nonpayable",
      "type": "function"
    },
    {
      "inputs": [
        {
          "internalType": "address",
          "name": "account",
          "type": "address"
        }
      ],
      "name": "balanceOf",
      "outputs": [
        {
          "internalType": "uint256",
          "name": "",
          "type": "uint256"
        }
      ],
      "stateMutability": "view",
      "type": "function"
    },
    {
      "inputs": [
        {
          "internalType": "uint256",
          "name": "amount",
          "type": "uint256"
        }
      ],
      "name": "burn",
      "outputs": [],
      "stateMutability": "nonpayable",
      "type": "function"
    },
    {
      "inputs": [
        {
          "internalType": "address",
          "name": "account",
          "type": "address"
        },
        {
          "internalType": "uint256",
          "name": "amount",
          "type": "uint256"
        }
      ],
      "name": "burnFrom",
      "outputs": [],
      "stateMutability": "nonpayable",
      "type": "function"
    },
    {
      "inputs": [
        {
          "internalType": "uint256",
          "name": "_value",
          "type": "uint256"
        }
      ],
      "name": "burnTokens",
      "outputs": [],
      "stateMutability": "nonpayable",
      "type": "function"
    },
    {
      "inputs": [],
      "name": "decimals",
      "outputs": [
        {
          "internalType": "uint8",
          "name": "",
          "type": "uint8"
        }
      ],
      "stateMutability": "pure",
      "type": "function"
    },
    {
      "inputs": [
        {
          "internalType": "address",
          "name": "spender",
          "type": "address"
        },
        {
          "internalType": "uint256",
          "name": "subtractedValue",
          "type": "uint256"
        }
      ],
      "name": "decreaseAllowance",
      "outputs": [
        {
          "internalType": "bool",
          "name": "",
          "type": "bool"
        }
      ],
      "stateMutability": "nonpayable",
      "type": "function"
    },
    {
      "inputs": [],
      "name": "getBalance",
      "outputs": [
        {
          "internalType": "uint256",
          "name": "",
          "type": "uint256"
        }
      ],
      "stateMutability": "view",
      "type": "function"
    },
    {
      "inputs": [
        {
          "internalType": "address",
          "name": "spender",
          "type": "address"
        },
        {
          "internalType": "uint256",
          "name": "addedValue",
          "type": "uint256"
        }
      ],
      "name": "increaseAllowance",
      "outputs": [
        {
          "internalType": "bool",
          "name": "",
          "type": "bool"
        }
      ],
      "stateMutability": "nonpayable",
      "type": "function"
    },
    {
      "inputs": [
        {
          "internalType": "address",
          "name": "to",
          "type": "address"
        },
        {
          "internalType": "uint256",
          "name": "amount",
          "type": "uint256"
        }
      ],
      "name": "mint",
      "outputs": [],
      "stateMutability": "nonpayable",
      "type": "function"
    },
    {
      "inputs": [],
      "name": "name",
      "outputs": [
        {
          "internalType": "string",
          "name": "",
          "type": "string"
        }
      ],
      "stateMutability": "view",
      "type": "function"
    },
    {
      "inputs": [],
      "name": "owner",
      "outputs": [
        {
          "internalType": "address",
          "name": "",
          "type": "address"
        }
      ],
      "stateMutability": "view",
      "type": "function"
    },
    {
      "inputs": [
        {
          "internalType": "uint8",
          "name": "_userChoice",
          "type": "uint8"
        }
      ],
      "name": "redeemTokens",
      "outputs": [
        {
          "internalType": "bool",
          "name": "",
          "type": "bool"
        }
      ],
      "stateMutability": "payable",
      "type": "function"
    },
    {
      "inputs": [],
      "name": "renounceOwnership",
      "outputs": [],
      "stateMutability": "nonpayable",
      "type": "function"
    },
    {
      "inputs": [],
      "name": "showStoreItems",
      "outputs": [
        {
          "internalType": "string",
          "name": "",
          "type": "string"
        }
      ],
      "stateMutability": "view",
      "type": "function"
    },
    {
      "inputs": [],
      "name": "symbol",
      "outputs": [
        {
          "internalType": "string",
          "name": "",
          "type": "string"
        }
      ],
      "stateMutability": "view",
      "type": "function"
    },
    {
      "inputs": [],
      "name": "totalSupply",
      "outputs": [
        {
          "internalType": "uint256",
          "name": "",
          "type": "uint256"
        }
      ],
      "stateMutability": "view",
      "type": "function"
    },
    {
      "inputs": [
        {
          "internalType": "address",
          "name": "to",
          "type": "address"
        },
        {
          "internalType": "uint256",
          "name": "amount",
          "type": "uint256"
        }
      ],
      "name": "transfer",
      "outputs": [
        {
          "internalType": "bool",
          "name": "",
          "type": "bool"
        }
      ],
      "stateMutability": "nonpayable",
      "type": "function"
    },
    {
      "inputs": [
        {
          "internalType": "address",
          "name": "from",
          "type": "address"
        },
        {
          "internalType": "address",
          "name": "to",
          "type": "address"
        },
        {
          "internalType": "uint256",
          "name": "amount",
          "type": "uint256"
        }
      ],
      "name": "transferFrom",
      "outputs": [
        {
          "internalType": "bool",
          "name": "",
          "type": "bool"
        }
      ],
      "stateMutability": "nonpayable",
      "type": "function"
    },
    {
      "inputs": [
        {
          "internalType": "address",
          "name": "newOwner",
          "type": "address"
        }
      ],
      "name": "transferOwnership",
      "outputs": [],
      "stateMutability": "nonpayable",
      "type": "function"
    },
    {
      "inputs": [
        {
          "internalType": "address",
          "name": "_receiver",
          "type": "address"
        },
        {
          "internalType": "uint256",
          "name": "_value",
          "type": "uint256"
        }
      ],
      "name": "transferTokens",
      "outputs": [],
      "stateMutability": "nonpayable",
      "type": "function"
    }
  ],
  "bytecode": "0x60806040523480156200001157600080fd5b506040518060400160405280600581526020017f446567656e0000000000000000000000000000000000000000000000000000008152506040518060400160405280600381526020017f44474e000000000000000000000000000000000000000000000000000000000081525081600390816200008f919062000412565b508060049081620000a1919062000412565b505050620000c4620000b8620000ca60201b60201c565b620000d260201b60201c565b620004f9565b600033905090565b6000600560009054906101000a900473ffffffffffffffffffffffffffffffffffffffff16905081600560006101000a81548173ffffffffffffffffffffffffffffffffffffffff021916908373ffffffffffffffffffffffffffffffffffffffff1602179055508173ffffffffffffffffffffffffffffffffffffffff168173ffffffffffffffffffffffffffffffffffffffff167f8be0079c531659141344cd1fd0a4f28419497f9722a3daafe3b4186f6b6457e060405160405180910390a35050565b600081519050919050565b7f4e487b7100000000000000000000000000000000000000000000000000000000600052604160045260246000fd5b7f4e487b7100000000000000000000000000000000000000000000000000000000600052602260045260246000fd5b600060028204905060018216806200021a57607f821691505b60208210810362000230576200022f620001d2565b5b50919050565b60008190508160005260206000209050919050565b60006020601f8301049050919050565b600082821b905092915050565b6000600883026200029a7fffffffffffffffffffffffffffffffffffffffffffffffffffffffffffffffff826200025b565b620002a686836200025b565b95508019841693508086168417925050509392505050565b6000819050919050565b6000819050919050565b6000620002f3620002ed620002e784620002be565b620002c8565b620002be565b9050919050565b6000819050919050565b6200030f83620002d2565b620003276200031e82620002fa565b84845462000268565b825550505050565b600090565b6200033e6200032f565b6200034b81848462000304565b505050565b5b8181101562000373576200036760008262000334565b60018101905062000351565b5050565b601f821115620003c2576200038c8162000236565b62000397846200024b565b81016020851015620003a7578190505b620003bf620003b6856200024b565b83018262000350565b50505b505050565b600082821c905092915050565b6000620003e760001984600802620003c7565b1980831691505092915050565b6000620004028383620003d4565b9150826002028217905092915050565b6200041d8262000198565b67ffffffffffffffff811115620004395762000438620001a3565b5b62000445825462000201565b6200045282828562000377565b600060209050601f8311600181146200048a576000841562000475578287015190505b620004818582620003f4565b865550620004f1565b601f1984166200049a8662000236565b60005b82811015620004c4578489015182556001820191506020850194506020810190506200049d565b86831015620004e45784890151620004e0601f891682620003d4565b8355505b6001600288020188555050505b505050505050565b61262c80620005096000396000f3fe6080604052600436106101355760003560e01c80636d1b229d116100ab57806395d89b411161006f57806395d89b411461041b578063a457c2d714610446578063a9059cbb14610483578063bec3fa17146104c0578063dd62ed3e146104e9578063f2fde38b1461052657610135565b80636d1b229d1461034a57806370a0823114610373578063715018a6146103b057806379cc6790146103c75780638da5cb5b146103f057610135565b806323b872dd116100fd57806323b872dd14610223578063313ce56714610260578063395093511461028b57806340c10f19146102c857806342966c68146102f157806350aed53e1461031a57610135565b806306fdde031461013a5780630934074f14610165578063095ea7b31461019057806312065fe0146101cd57806318160ddd146101f8575b600080fd5b34801561014657600080fd5b5061014f61054f565b60405161015c91906119ce565b60405180910390f35b34801561017157600080fd5b5061017a6105e1565b60405161018791906119ce565b60405180910390f35b34801561019c57600080fd5b506101b760048036038101906101b29190611a89565b6106dc565b6040516101c49190611ae4565b60405180910390f35b3480156101d957600080fd5b506101e26106ff565b6040516101ef9190611b0e565b60405180910390f35b34801561020457600080fd5b5061020d610780565b60405161021a9190611b0e565b60405180910390f35b34801561022f57600080fd5b5061024a60048036038101906102459190611b29565b61078a565b6040516102579190611ae4565b60405180910390f35b34801561026c57600080fd5b506102756107b9565b6040516102829190611b98565b60405180910390f35b34801561029757600080fd5b506102b260048036038101906102ad9190611a89565b6107be565b6040516102bf9190611ae4565b60405180910390f35b3480156102d457600080fd5b506102ef60048036038101906102ea9190611a89565b6107f5565b005b3480156102fd57600080fd5b5061031860048036038101906103139190611bb3565b61080b565b005b610334600480360381019061032f9190611c0c565b61081f565b6040516103419190611ae4565b60405180910390f35b34801561035657600080fd5b50610371600480360381019061036c9190611bb3565b610b9f565b005b34801561037f57600080fd5b5061039a60048036038101906103959190611c39565b610bf6565b6040516103a79190611b0e565b60405180910390f35b3480156103bc57600080fd5b506103c5610c3e565b005b3480156103d357600080fd5b506103ee60048036038101906103e99190611a89565b610c52565b005b3480156103fc57600080fd5b50610405610c72565b6040516104129190611c75565b60405180910390f35b34801561042757600080fd5b50610430610c9c565b60405161043d91906119ce565b60405180910390f35b34801561045257600080fd5b5061046d60048036038101906104689190611a89565b610d2e565b60405161047a9190611ae4565b60405180910390f35b34801561048f57600080fd5b506104aa60048036038101906104a59190611a89565b610da5565b6040516104b79190611ae4565b60405180910390f35b3480156104cc57600080fd5b506104e760048036038101906104e29190611a89565b610dc8565b005b3480156104f557600080fd5b50610510600480360381019061050b9190611c90565b610e2e565b60405161051d9190611b0e565b60405180910390f35b34801561053257600080fd5b5061054d60048036038101906105489190611c39565b610eb5565b005b60606003805461055e90611cff565b80601f016020809104026020016040519081016040528092919081815260200182805461058a90611cff565b80156105d75780601f106105ac576101008083540402835291602001916105d7565b820191906000526020600020905b8154815290600101906020018083116105ba57829003601f168201915b5050505050905090565b60606106046040518060600160405280602f81526020016124f5602f9139610f38565b6106426040518060400160405280601c81526020017f53656c656374696f6e20313a20427574746572666c79204b6e69666500000000815250610f38565b6106806040518060400160405280601b81526020017f53656c656374696f6e20323a204b6172616d626974204b6e6966650000000000815250610f38565b6106be6040518060400160405280601b81526020017f53656c656374696f6e20333a2048756e74736d616e204b6e6966650000000000815250610f38565b6040518060c001604052806084815260200161254b60849139905090565b6000806106e7610fd1565b90506106f4818585610fd9565b600191505092915050565b60003073ffffffffffffffffffffffffffffffffffffffff166370a08231336040518263ffffffff1660e01b815260040161073a9190611c75565b602060405180830381865afa158015610757573d6000803e3d6000fd5b505050506040513d601f19601f8201168201806040525081019061077b9190611d45565b905090565b6000600254905090565b600080610795610fd1565b90506107a28582856111a2565b6107ad85858561122e565b60019150509392505050565b600090565b6000806107c9610fd1565b90506107ea8185856107db8589610e2e565b6107e59190611da1565b610fd9565b600191505092915050565b6107fd6114a4565b6108078282611522565b5050565b61081c610816610fd1565b82611678565b50565b600060018260ff16036109335760643073ffffffffffffffffffffffffffffffffffffffff166370a08231336040518263ffffffff1660e01b81526004016108679190611c75565b602060405180830381865afa158015610884573d6000803e3d6000fd5b505050506040513d601f19601f820116820180604052508101906108a89190611d45565b10156108e9576040517f08c379a00000000000000000000000000000000000000000000000000000000081526004016108e090611e47565b60405180910390fd5b6108f43360646106dc565b5061090833610901610c72565b606461078a565b5061092a6040518060600160405280602881526020016125cf60289139610f38565b60019050610b9a565b60028260ff1603610a4557604b3073ffffffffffffffffffffffffffffffffffffffff166370a08231336040518263ffffffff1660e01b81526004016109799190611c75565b602060405180830381865afa158015610996573d6000803e3d6000fd5b505050506040513d601f19601f820116820180604052508101906109ba9190611d45565b10156109fb576040517f08c379a00000000000000000000000000000000000000000000000000000000081526004016109f290611e47565b60405180910390fd5b610a0633604b6106dc565b50610a1a33610a13610c72565b604b61078a565b50610a3c60405180606001604052806027815260200161252460279139610f38565b60019050610b9a565b60038260ff1603610b575760323073ffffffffffffffffffffffffffffffffffffffff166370a08231336040518263ffffffff1660e01b8152600401610a8b9190611c75565b602060405180830381865afa158015610aa8573d6000803e3d6000fd5b505050506040513d601f19601f82011682018060405250810190610acc9190611d45565b1015610b0d576040517f08c379a0000000000000000000000000000000000000000000000000000000008152600401610b0490611e47565b60405180910390fd5b610b183360326106dc565b50610b2c33610b25610c72565b603261078a565b50610b4e6040518060600160405280602781526020016124ce60279139610f38565b60019050610b9a565b610b956040518060400160405280601a81526020017f54686174206973206e6f7420612076616c69642063686f696365000000000000815250610f38565b600090505b919050565b80610ba933610bf6565b1015610bea576040517f08c379a0000000000000000000000000000000000000000000000000000000008152600401610be190611e47565b60405180910390fd5b610bf38161080b565b50565b60008060008373ffffffffffffffffffffffffffffffffffffffff1673ffffffffffffffffffffffffffffffffffffffff168152602001908152602001600020549050919050565b610c466114a4565b610c506000611845565b565b610c6482610c5e610fd1565b836111a2565b610c6e8282611678565b5050565b6000600560009054906101000a900473ffffffffffffffffffffffffffffffffffffffff16905090565b606060048054610cab90611cff565b80601f0160208091040260200160405190810160405280929190818152602001828054610cd790611cff565b8015610d245780601f10610cf957610100808354040283529160200191610d24565b820191906000526020600020905b815481529060010190602001808311610d0757829003601f168201915b5050505050905090565b600080610d39610fd1565b90506000610d478286610e2e565b905083811015610d8c576040517f08c379a0000000000000000000000000000000000000000000000000000000008152600401610d8390611ed9565b60405180910390fd5b610d998286868403610fd9565b60019250505092915050565b600080610db0610fd1565b9050610dbd81858561122e565b600191505092915050565b80610dd233610bf6565b1015610e13576040517f08c379a0000000000000000000000000000000000000000000000000000000008152600401610e0a90611e47565b60405180910390fd5b610e1d33826106dc565b50610e2933838361078a565b505050565b6000600160008473ffffffffffffffffffffffffffffffffffffffff1673ffffffffffffffffffffffffffffffffffffffff16815260200190815260200160002060008373ffffffffffffffffffffffffffffffffffffffff1673ffffffffffffffffffffffffffffffffffffffff16815260200190815260200160002054905092915050565b610ebd6114a4565b600073ffffffffffffffffffffffffffffffffffffffff168173ffffffffffffffffffffffffffffffffffffffff1603610f2c576040517f08c379a0000000000000000000000000000000000000000000000000000000008152600401610f2390611f6b565b60405180910390fd5b610f3581611845565b50565b610fce81604051602401610f4c91906119ce565b6040516020818303038152906040527f41304fac000000000000000000000000000000000000000000000000000000007bffffffffffffffffffffffffffffffffffffffffffffffffffffffff19166020820180517bffffffffffffffffffffffffffffffffffffffffffffffffffffffff838183161783525050505061190b565b50565b600033905090565b600073ffffffffffffffffffffffffffffffffffffffff168373ffffffffffffffffffffffffffffffffffffffff1603611048576040517f08c379a000000000000000000000000000000000000000000000000000000000815260040161103f90611ffd565b60405180910390fd5b600073ffffffffffffffffffffffffffffffffffffffff168273ffffffffffffffffffffffffffffffffffffffff16036110b7576040517f08c379a00000000000000000000000000000000000000000000000000000000081526004016110ae9061208f565b60405180910390fd5b80600160008573ffffffffffffffffffffffffffffffffffffffff1673ffffffffffffffffffffffffffffffffffffffff16815260200190815260200160002060008473ffffffffffffffffffffffffffffffffffffffff1673ffffffffffffffffffffffffffffffffffffffff168152602001908152602001600020819055508173ffffffffffffffffffffffffffffffffffffffff168373ffffffffffffffffffffffffffffffffffffffff167f8c5be1e5ebec7d5bd14f71427d1e84f3dd0314c0f7b2291e5b200ac8c7c3b925836040516111959190611b0e565b60405180910390a3505050565b60006111ae8484610e2e565b90507fffffffffffffffffffffffffffffffffffffffffffffffffffffffffffffffff8114611228578181101561121a576040517f08c379a0000000000000000000000000000000000000000000000000000000008152600401611211906120fb565b60405180910390fd5b6112278484848403610fd9565b5b50505050565b600073ffffffffffffffffffffffffffffffffffffffff168373ffffffffffffffffffffffffffffffffffffffff160361129d576040517f08c379a00000000000000000000000000000000000000000000000000000000081526004016112949061218d565b60405180910390fd5b600073ffffffffffffffffffffffffffffffffffffffff168273ffffffffffffffffffffffffffffffffffffffff160361130c576040517f08c379a00000000000000000000000000000000000000000000000000000000081526004016113039061221f565b60405180910390fd5b611317838383611934565b60008060008573ffffffffffffffffffffffffffffffffffffffff1673ffffffffffffffffffffffffffffffffffffffff1681526020019081526020016000205490508181101561139d576040517f08c379a0000000000000000000000000000000000000000000000000000000008152600401611394906122b1565b60405180910390fd5b8181036000808673ffffffffffffffffffffffffffffffffffffffff1673ffffffffffffffffffffffffffffffffffffffff16815260200190815260200160002081905550816000808573ffffffffffffffffffffffffffffffffffffffff1673ffffffffffffffffffffffffffffffffffffffff168152602001908152602001600020600082825401925050819055508273ffffffffffffffffffffffffffffffffffffffff168473ffffffffffffffffffffffffffffffffffffffff167fddf252ad1be2c89b69c2b068fc378daa952ba7f163c4a11628f55a4df523b3ef8460405161148b9190611b0e565b60405180910390a361149e848484611939565b50505050565b6114ac610fd1565b73ffffffffffffffffffffffffffffffffffffffff166114ca610c72565b73ffffffffffffffffffffffffffffffffffffffff1614611520576040517f08c379a00000000000000000000000000000000000000000000000000000000081526004016115179061231d565b60405180910390fd5b565b600073ffffffffffffffffffffffffffffffffffffffff168273ffffffffffffffffffffffffffffffffffffffff1603611591576040517f08c379a000000000000000000000000000000000000000000000000000000000815260040161158890612389565b60405180910390fd5b61159d60008383611934565b80600260008282546115af9190611da1565b92505081905550806000808473ffffffffffffffffffffffffffffffffffffffff1673ffffffffffffffffffffffffffffffffffffffff168152602001908152602001600020600082825401925050819055508173ffffffffffffffffffffffffffffffffffffffff16600073ffffffffffffffffffffffffffffffffffffffff167fddf252ad1be2c89b69c2b068fc378daa952ba7f163c4a11628f55a4df523b3ef836040516116609190611b0e565b60405180910390a361167460008383611939565b5050565b600073ffffffffffffffffffffffffffffffffffffffff168273ffffffffffffffffffffffffffffffffffffffff16036116e7576040517f08c379a00000000000000000000000000000000000000000000000000000000081526004016116de9061241b565b60405180910390fd5b6116f382600083611934565b60008060008473ffffffffffffffffffffffffffffffffffffffff1673ffffffffffffffffffffffffffffffffffffffff16815260200190815260200160002054905081811015611779576040517f08c379a0000000000000000000000000000000000000000000000000000000008152600401611770906124ad565b60405180910390fd5b8181036000808573ffffffffffffffffffffffffffffffffffffffff1673ffffffffffffffffffffffffffffffffffffffff1681526020019081526020016000208190555081600260008282540392505081905550600073ffffffffffffffffffffffffffffffffffffffff168373ffffffffffffffffffffffffffffffffffffffff167fddf252ad1be2c89b69c2b068fc378daa952ba7f163c4a11628f55a4df523b3ef8460405161182c9190611b0e565b60405180910390a361184083600084611939565b505050565b6000600560009054906101000a900473ffffffffffffffffffffffffffffffffffffffff16905081600560006101000a81548173ffffffffffffffffffffffffffffffffffffffff021916908373ffffffffffffffffffffffffffffffffffffffff1602179055508173ffffffffffffffffffffffffffffffffffffffff168173ffffffffffffffffffffffffffffffffffffffff167f8be0079c531659141344cd1fd0a4f28419497f9722a3daafe3b4186f6b6457e060405160405180910390a35050565b60008151905060006a636f6e736f6c652e6c6f679050602083016000808483855afa5050505050565b505050565b505050565b600081519050919050565b600082825260208201905092915050565b60005b8381101561197857808201518184015260208101905061195d565b60008484015250505050565b6000601f19601f8301169050919050565b60006119a08261193e565b6119aa8185611949565b93506119ba81856020860161195a565b6119c381611984565b840191505092915050565b600060208201905081810360008301526119e88184611995565b905092915050565b600080fd5b600073ffffffffffffffffffffffffffffffffffffffff82169050919050565b6000611a20826119f5565b9050919050565b611a3081611a15565b8114611a3b57600080fd5b50565b600081359050611a4d81611a27565b92915050565b6000819050919050565b611a6681611a53565b8114611a7157600080fd5b50565b600081359050611a8381611a5d565b92915050565b60008060408385031215611aa057611a9f6119f0565b5b6000611aae85828601611a3e565b9250506020611abf85828601611a74565b9150509250929050565b60008115159050919050565b611ade81611ac9565b82525050565b6000602082019050611af96000830184611ad5565b92915050565b611b0881611a53565b82525050565b6000602082019050611b236000830184611aff565b92915050565b600080600060608486031215611b4257611b416119f0565b5b6000611b5086828701611a3e565b9350506020611b6186828701611a3e565b9250506040611b7286828701611a74565b9150509250925092565b600060ff82169050919050565b611b9281611b7c565b82525050565b6000602082019050611bad6000830184611b89565b92915050565b600060208284031215611bc957611bc86119f0565b5b6000611bd784828501611a74565b91505092915050565b611be981611b7c565b8114611bf457600080fd5b50565b600081359050611c0681611be0565b92915050565b600060208284031215611c2257611c216119f0565b5b6000611c3084828501611bf7565b91505092915050565b600060208284031215611c4f57611c4e6119f0565b5b6000611c5d84828501611a3e565b91505092915050565b611c6f81611a15565b82525050565b6000602082019050611c8a6000830184611c66565b92915050565b60008060408385031215611ca757611ca66119f0565b5b6000611cb585828601611a3e565b9250506020611cc685828601611a3e565b9150509250929050565b7f4e487b7100000000000000000000000000000000000000000000000000000000600052602260045260246000fd5b60006002820490506001821680611d1757607f821691505b602082108103611d2a57611d29611cd0565b5b50919050565b600081519050611d3f81611a5d565b92915050565b600060208284031215611d5b57611d5a6119f0565b5b6000611d6984828501611d30565b91505092915050565b7f4e487b7100000000000000000000000000000000000000000000000000000000600052601160045260246000fd5b6000611dac82611a53565b9150611db783611a53565b9250828201905080821115611dcf57611dce611d72565b5b92915050565b7f596f7520646f206e6f74206861766520656e6f75676820446567656e20546f6b60008201527f656e730000000000000000000000000000000000000000000000000000000000602082015250565b6000611e31602383611949565b9150611e3c82611dd5565b604082019050919050565b60006020820190508181036000830152611e6081611e24565b9050919050565b7f45524332303a2064656372656173656420616c6c6f77616e63652062656c6f7760008201527f207a65726f000000000000000000000000000000000000000000000000000000602082015250565b6000611ec3602583611949565b9150611ece82611e67565b604082019050919050565b60006020820190508181036000830152611ef281611eb6565b9050919050565b7f4f776e61626c653a206e6577206f776e657220697320746865207a65726f206160008201527f6464726573730000000000000000000000000000000000000000000000000000602082015250565b6000611f55602683611949565b9150611f6082611ef9565b604082019050919050565b60006020820190508181036000830152611f8481611f48565b9050919050565b7f45524332303a20617070726f76652066726f6d20746865207a65726f2061646460008201527f7265737300000000000000000000000000000000000000000000000000000000602082015250565b6000611fe7602483611949565b9150611ff282611f8b565b604082019050919050565b6000602082019050818103600083015261201681611fda565b9050919050565b7f45524332303a20617070726f766520746f20746865207a65726f20616464726560008201527f7373000000000000000000000000000000000000000000000000000000000000602082015250565b6000612079602283611949565b91506120848261201d565b604082019050919050565b600060208201905081810360008301526120a88161206c565b9050919050565b7f45524332303a20696e73756666696369656e7420616c6c6f77616e6365000000600082015250565b60006120e5601d83611949565b91506120f0826120af565b602082019050919050565b60006020820190508181036000830152612114816120d8565b9050919050565b7f45524332303a207472616e736665722066726f6d20746865207a65726f20616460008201527f6472657373000000000000000000000000000000000000000000000000000000602082015250565b6000612177602583611949565b91506121828261211b565b604082019050919050565b600060208201905081810360008301526121a68161216a565b9050919050565b7f45524332303a207472616e7366657220746f20746865207a65726f206164647260008201527f6573730000000000000000000000000000000000000000000000000000000000602082015250565b6000612209602383611949565b9150612214826121ad565b604082019050919050565b60006020820190508181036000830152612238816121fc565b9050919050565b7f45524332303a207472616e7366657220616d6f756e742065786365656473206260008201527f616c616e63650000000000000000000000000000000000000000000000000000602082015250565b600061229b602683611949565b91506122a68261223f565b604082019050919050565b600060208201905081810360008301526122ca8161228e565b9050919050565b7f4f776e61626c653a2063616c6c6572206973206e6f7420746865206f776e6572600082015250565b6000612307602083611949565b9150612312826122d1565b602082019050919050565b60006020820190508181036000830152612336816122fa565b9050919050565b7f45524332303a206d696e7420746f20746865207a65726f206164647265737300600082015250565b6000612373601f83611949565b915061237e8261233d565b602082019050919050565b600060208201905081810360008301526123a281612366565b9050919050565b7f45524332303a206275726e2066726f6d20746865207a65726f2061646472657360008201527f7300000000000000000000000000000000000000000000000000000000000000602082015250565b6000612405602183611949565b9150612410826123a9565b604082019050919050565b60006020820190508181036000830152612434816123f8565b9050919050565b7f45524332303a206275726e20616d6f756e7420657863656564732062616c616e60008201527f6365000000000000000000000000000000000000000000000000000000000000602082015250565b6000612497602283611949565b91506124a28261243b565b604082019050919050565b600060208201905081810360008301526124c68161248a565b905091905056fe596f7520686176652072656465656d656420666f7220612048756e74736d616e204b6e6966652154686520666f6c6c6f77696e67206974656d732061726520617661696c61626c6520666f722070757263686173653a596f7520686176652072656465656d656420666f722061204b6172616d626974204b6e6966652154686520666f6c6c6f77696e67206974656d732061726520617661696c61626c6520666f722070757263686173653a0a53656c656374696f6e20312e20427574746572666c79204b6e6966650a53656c656374696f6e20322e204b6172616d626974204b6e6966650a53656c656374696f6e20332e2048756e74736d616e204b6e696665596f7520686176652072656465656d656420666f72206120427574746572666c79204b6e69666521a26469706673582212205d8cc2fc4c065c3a48f41e3d989f147114df5f15d4973c655430194f50e5536664736f6c63430008120033",
  "linkReferences": {},
  "deployedLinkReferences": {}
}